{
  "_format": "hh-sol-artifact-1",
  "contractName": "NFT",
  "sourceName": "contracts/NFT.sol",
  "abi": [
    {
      "inputs": [
        {
          "internalType": "address",
          "name": "initialOwner",
          "type": "address"
        },
        {
          "internalType": "address",
          "name": "usdtTokenAddress",
          "type": "address"
        }
      ],
      "stateMutability": "nonpayable",
      "type": "constructor"
    },
    {
      "inputs": [],
      "name": "ERC721EnumerableForbiddenBatchMint",
      "type": "error"
    },
    {
      "inputs": [
        {
          "internalType": "address",
          "name": "sender",
          "type": "address"
        },
        {
          "internalType": "uint256",
          "name": "tokenId",
          "type": "uint256"
        },
        {
          "internalType": "address",
          "name": "owner",
          "type": "address"
        }
      ],
      "name": "ERC721IncorrectOwner",
      "type": "error"
    },
    {
      "inputs": [
        {
          "internalType": "address",
          "name": "operator",
          "type": "address"
        },
        {
          "internalType": "uint256",
          "name": "tokenId",
          "type": "uint256"
        }
      ],
      "name": "ERC721InsufficientApproval",
      "type": "error"
    },
    {
      "inputs": [
        {
          "internalType": "address",
          "name": "approver",
          "type": "address"
        }
      ],
      "name": "ERC721InvalidApprover",
      "type": "error"
    },
    {
      "inputs": [
        {
          "internalType": "address",
          "name": "operator",
          "type": "address"
        }
      ],
      "name": "ERC721InvalidOperator",
      "type": "error"
    },
    {
      "inputs": [
        {
          "internalType": "address",
          "name": "owner",
          "type": "address"
        }
      ],
      "name": "ERC721InvalidOwner",
      "type": "error"
    },
    {
      "inputs": [
        {
          "internalType": "address",
          "name": "receiver",
          "type": "address"
        }
      ],
      "name": "ERC721InvalidReceiver",
      "type": "error"
    },
    {
      "inputs": [
        {
          "internalType": "address",
          "name": "sender",
          "type": "address"
        }
      ],
      "name": "ERC721InvalidSender",
      "type": "error"
    },
    {
      "inputs": [
        {
          "internalType": "uint256",
          "name": "tokenId",
          "type": "uint256"
        }
      ],
      "name": "ERC721NonexistentToken",
      "type": "error"
    },
    {
      "inputs": [
        {
          "internalType": "address",
          "name": "owner",
          "type": "address"
        },
        {
          "internalType": "uint256",
          "name": "index",
          "type": "uint256"
        }
      ],
      "name": "ERC721OutOfBoundsIndex",
      "type": "error"
    },
    {
      "inputs": [
        {
          "internalType": "address",
          "name": "owner",
          "type": "address"
        }
      ],
      "name": "OwnableInvalidOwner",
      "type": "error"
    },
    {
      "inputs": [
        {
          "internalType": "address",
          "name": "account",
          "type": "address"
        }
      ],
      "name": "OwnableUnauthorizedAccount",
      "type": "error"
    },
    {
      "anonymous": false,
      "inputs": [
        {
          "indexed": true,
          "internalType": "address",
          "name": "owner",
          "type": "address"
        },
        {
          "indexed": true,
          "internalType": "address",
          "name": "approved",
          "type": "address"
        },
        {
          "indexed": true,
          "internalType": "uint256",
          "name": "tokenId",
          "type": "uint256"
        }
      ],
      "name": "Approval",
      "type": "event"
    },
    {
      "anonymous": false,
      "inputs": [
        {
          "indexed": true,
          "internalType": "address",
          "name": "owner",
          "type": "address"
        },
        {
          "indexed": true,
          "internalType": "address",
          "name": "operator",
          "type": "address"
        },
        {
          "indexed": false,
          "internalType": "bool",
          "name": "approved",
          "type": "bool"
        }
      ],
      "name": "ApprovalForAll",
      "type": "event"
    },
    {
      "anonymous": false,
      "inputs": [
        {
          "indexed": true,
          "internalType": "address",
          "name": "previousOwner",
          "type": "address"
        },
        {
          "indexed": true,
          "internalType": "address",
          "name": "newOwner",
          "type": "address"
        }
      ],
      "name": "OwnershipTransferred",
      "type": "event"
    },
    {
      "anonymous": false,
      "inputs": [
        {
          "indexed": true,
          "internalType": "address",
          "name": "from",
          "type": "address"
        },
        {
          "indexed": true,
          "internalType": "address",
          "name": "to",
          "type": "address"
        },
        {
          "indexed": true,
          "internalType": "uint256",
          "name": "tokenId",
          "type": "uint256"
        }
      ],
      "name": "Transfer",
      "type": "event"
    },
    {
      "inputs": [
        {
          "internalType": "address",
          "name": "from",
          "type": "address"
        },
        {
          "internalType": "address",
          "name": "to",
          "type": "address"
        },
        {
          "internalType": "uint256",
          "name": "tokenId",
          "type": "uint256"
        }
      ],
      "name": "adminTransfer",
      "outputs": [],
      "stateMutability": "nonpayable",
      "type": "function"
    },
    {
      "inputs": [
        {
          "internalType": "address",
          "name": "to",
          "type": "address"
        },
        {
          "internalType": "uint256",
          "name": "tokenId",
          "type": "uint256"
        }
      ],
      "name": "approve",
      "outputs": [],
      "stateMutability": "nonpayable",
      "type": "function"
    },
    {
      "inputs": [
        {
          "internalType": "address",
          "name": "to",
          "type": "address"
        }
      ],
      "name": "assignNFT",
      "outputs": [],
      "stateMutability": "nonpayable",
      "type": "function"
    },
    {
      "inputs": [
        {
          "internalType": "address",
          "name": "owner",
          "type": "address"
        }
      ],
      "name": "balanceOf",
      "outputs": [
        {
          "internalType": "uint256",
          "name": "",
          "type": "uint256"
        }
      ],
      "stateMutability": "view",
      "type": "function"
    },
    {
      "inputs": [
        {
          "internalType": "address[]",
          "name": "from",
          "type": "address[]"
        },
        {
          "internalType": "address",
          "name": "to",
          "type": "address"
        },
        {
          "internalType": "uint256[]",
          "name": "tokenIds",
          "type": "uint256[]"
        }
      ],
      "name": "batchAdminTransfer",
      "outputs": [],
      "stateMutability": "nonpayable",
      "type": "function"
    },
    {
      "inputs": [
        {
          "internalType": "address",
          "name": "to",
          "type": "address"
        },
        {
          "internalType": "uint256",
          "name": "quantity",
          "type": "uint256"
        }
      ],
      "name": "batchMint",
      "outputs": [],
      "stateMutability": "nonpayable",
      "type": "function"
    },
    {
      "inputs": [
        {
          "internalType": "uint256",
          "name": "amount",
          "type": "uint256"
        }
      ],
      "name": "depositUSDT",
      "outputs": [],
      "stateMutability": "nonpayable",
      "type": "function"
    },
    {
      "inputs": [
        {
          "internalType": "uint256",
          "name": "tokenId",
          "type": "uint256"
        }
      ],
      "name": "getApproved",
      "outputs": [
        {
          "internalType": "address",
          "name": "",
          "type": "address"
        }
      ],
      "stateMutability": "view",
      "type": "function"
    },
    {
      "inputs": [
        {
          "internalType": "uint256",
          "name": "tokenId",
          "type": "uint256"
        }
      ],
      "name": "getInvestment",
      "outputs": [
        {
          "internalType": "uint256",
          "name": "",
          "type": "uint256"
        }
      ],
      "stateMutability": "view",
      "type": "function"
    },
    {
      "inputs": [
        {
          "internalType": "uint256",
          "name": "tokenId",
          "type": "uint256"
        }
      ],
      "name": "getPrice",
      "outputs": [
        {
          "internalType": "uint256",
          "name": "",
          "type": "uint256"
        }
      ],
      "stateMutability": "view",
      "type": "function"
    },
    {
      "inputs": [],
      "name": "getUSDTBalance",
      "outputs": [
        {
          "internalType": "uint256",
          "name": "",
          "type": "uint256"
        }
      ],
      "stateMutability": "view",
      "type": "function"
    },
    {
      "inputs": [
        {
          "internalType": "uint256",
          "name": "quantity",
          "type": "uint256"
        }
      ],
      "name": "initialMintAndList",
      "outputs": [],
      "stateMutability": "nonpayable",
      "type": "function"
    },
    {
      "inputs": [
        {
          "internalType": "address",
          "name": "owner",
          "type": "address"
        },
        {
          "internalType": "address",
          "name": "operator",
          "type": "address"
        }
      ],
      "name": "isApprovedForAll",
      "outputs": [
        {
          "internalType": "bool",
          "name": "",
          "type": "bool"
        }
      ],
      "stateMutability": "view",
      "type": "function"
    },
    {
      "inputs": [
        {
          "internalType": "address",
          "name": "to",
          "type": "address"
        }
      ],
      "name": "mint",
      "outputs": [],
      "stateMutability": "nonpayable",
      "type": "function"
    },
    {
      "inputs": [],
      "name": "name",
      "outputs": [
        {
          "internalType": "string",
          "name": "",
          "type": "string"
        }
      ],
      "stateMutability": "view",
      "type": "function"
    },
    {
      "inputs": [],
      "name": "owner",
      "outputs": [
        {
          "internalType": "address",
          "name": "",
          "type": "address"
        }
      ],
      "stateMutability": "view",
      "type": "function"
    },
    {
      "inputs": [
        {
          "internalType": "uint256",
          "name": "tokenId",
          "type": "uint256"
        }
      ],
      "name": "ownerOf",
      "outputs": [
        {
          "internalType": "address",
          "name": "",
          "type": "address"
        }
      ],
      "stateMutability": "view",
      "type": "function"
    },
    {
      "inputs": [
        {
          "internalType": "uint256",
          "name": "tokenId",
          "type": "uint256"
        }
      ],
      "name": "purchaseNFT",
      "outputs": [],
      "stateMutability": "nonpayable",
      "type": "function"
    },
    {
      "inputs": [],
      "name": "renounceOwnership",
      "outputs": [],
      "stateMutability": "nonpayable",
      "type": "function"
    },
    {
      "inputs": [
        {
          "internalType": "address",
          "name": "from",
          "type": "address"
        },
        {
          "internalType": "address",
          "name": "to",
          "type": "address"
        },
        {
          "internalType": "uint256",
          "name": "tokenId",
          "type": "uint256"
        }
      ],
      "name": "safeTransferFrom",
      "outputs": [],
      "stateMutability": "nonpayable",
      "type": "function"
    },
    {
      "inputs": [
        {
          "internalType": "address",
          "name": "from",
          "type": "address"
        },
        {
          "internalType": "address",
          "name": "to",
          "type": "address"
        },
        {
          "internalType": "uint256",
          "name": "tokenId",
          "type": "uint256"
        },
        {
          "internalType": "bytes",
          "name": "data",
          "type": "bytes"
        }
      ],
      "name": "safeTransferFrom",
      "outputs": [],
      "stateMutability": "nonpayable",
      "type": "function"
    },
    {
      "inputs": [
        {
          "internalType": "address",
          "name": "operator",
          "type": "address"
        },
        {
          "internalType": "bool",
          "name": "approved",
          "type": "bool"
        }
      ],
      "name": "setApprovalForAll",
      "outputs": [],
      "stateMutability": "nonpayable",
      "type": "function"
    },
    {
      "inputs": [
        {
          "internalType": "string",
          "name": "baseURI_",
          "type": "string"
        }
      ],
      "name": "setBaseURI",
      "outputs": [],
      "stateMutability": "nonpayable",
      "type": "function"
    },
    {
      "inputs": [
        {
          "internalType": "bytes4",
          "name": "interfaceId",
          "type": "bytes4"
        }
      ],
      "name": "supportsInterface",
      "outputs": [
        {
          "internalType": "bool",
          "name": "",
          "type": "bool"
        }
      ],
      "stateMutability": "view",
      "type": "function"
    },
    {
      "inputs": [],
      "name": "symbol",
      "outputs": [
        {
          "internalType": "string",
          "name": "",
          "type": "string"
        }
      ],
      "stateMutability": "view",
      "type": "function"
    },
    {
      "inputs": [
        {
          "internalType": "uint256",
          "name": "index",
          "type": "uint256"
        }
      ],
      "name": "tokenByIndex",
      "outputs": [
        {
          "internalType": "uint256",
          "name": "",
          "type": "uint256"
        }
      ],
      "stateMutability": "view",
      "type": "function"
    },
    {
      "inputs": [
        {
          "internalType": "address",
          "name": "owner",
          "type": "address"
        },
        {
          "internalType": "uint256",
          "name": "index",
          "type": "uint256"
        }
      ],
      "name": "tokenOfOwnerByIndex",
      "outputs": [
        {
          "internalType": "uint256",
          "name": "",
          "type": "uint256"
        }
      ],
      "stateMutability": "view",
      "type": "function"
    },
    {
      "inputs": [
        {
          "internalType": "uint256",
          "name": "tokenId",
          "type": "uint256"
        }
      ],
      "name": "tokenURI",
      "outputs": [
        {
          "internalType": "string",
          "name": "",
          "type": "string"
        }
      ],
      "stateMutability": "view",
      "type": "function"
    },
    {
      "inputs": [],
      "name": "totalSupply",
      "outputs": [
        {
          "internalType": "uint256",
          "name": "",
          "type": "uint256"
        }
      ],
      "stateMutability": "view",
      "type": "function"
    },
    {
      "inputs": [
        {
          "internalType": "address",
          "name": "from",
          "type": "address"
        },
        {
          "internalType": "address",
          "name": "to",
          "type": "address"
        },
        {
          "internalType": "uint256",
          "name": "tokenId",
          "type": "uint256"
        }
      ],
      "name": "transferFrom",
      "outputs": [],
      "stateMutability": "nonpayable",
      "type": "function"
    },
    {
      "inputs": [
        {
          "internalType": "address",
          "name": "newOwner",
          "type": "address"
        }
      ],
      "name": "transferOwnership",
      "outputs": [],
      "stateMutability": "nonpayable",
      "type": "function"
    },
    {
      "inputs": [
        {
          "internalType": "address",
          "name": "to",
          "type": "address"
        },
        {
          "internalType": "uint256",
          "name": "amount",
          "type": "uint256"
        }
      ],
      "name": "withdrawUSDT",
      "outputs": [],
      "stateMutability": "nonpayable",
      "type": "function"
    }
  ],
  "bytecode": "0x60806040523480156200001157600080fd5b5060405162004537380380620045378339818101604052810190620000379190620002ca565b816040518060400160405280600581526020017f4d794e46540000000000000000000000000000000000000000000000000000008152506040518060400160405280600481526020017f4d4e4654000000000000000000000000000000000000000000000000000000008152508160009081620000b591906200058b565b508060019081620000c791906200058b565b505050600073ffffffffffffffffffffffffffffffffffffffff168173ffffffffffffffffffffffffffffffffffffffff16036200013f5760006040517f1e4fbdf700000000000000000000000000000000000000000000000000000000815260040162000136919062000683565b60405180910390fd5b62000150816200019a60201b60201c565b5080600c60006101000a81548173ffffffffffffffffffffffffffffffffffffffff021916908373ffffffffffffffffffffffffffffffffffffffff1602179055505050620006a0565b6000600a60009054906101000a900473ffffffffffffffffffffffffffffffffffffffff16905081600a60006101000a81548173ffffffffffffffffffffffffffffffffffffffff021916908373ffffffffffffffffffffffffffffffffffffffff1602179055508173ffffffffffffffffffffffffffffffffffffffff168173ffffffffffffffffffffffffffffffffffffffff167f8be0079c531659141344cd1fd0a4f28419497f9722a3daafe3b4186f6b6457e060405160405180910390a35050565b600080fd5b600073ffffffffffffffffffffffffffffffffffffffff82169050919050565b6000620002928262000265565b9050919050565b620002a48162000285565b8114620002b057600080fd5b50565b600081519050620002c48162000299565b92915050565b60008060408385031215620002e457620002e362000260565b5b6000620002f485828601620002b3565b92505060206200030785828601620002b3565b9150509250929050565b600081519050919050565b7f4e487b7100000000000000000000000000000000000000000000000000000000600052604160045260246000fd5b7f4e487b7100000000000000000000000000000000000000000000000000000000600052602260045260246000fd5b600060028204905060018216806200039357607f821691505b602082108103620003a957620003a86200034b565b5b50919050565b60008190508160005260206000209050919050565b60006020601f8301049050919050565b600082821b905092915050565b600060088302620004137fffffffffffffffffffffffffffffffffffffffffffffffffffffffffffffffff82620003d4565b6200041f8683620003d4565b95508019841693508086168417925050509392505050565b6000819050919050565b6000819050919050565b60006200046c62000466620004608462000437565b62000441565b62000437565b9050919050565b6000819050919050565b62000488836200044b565b620004a0620004978262000473565b848454620003e1565b825550505050565b600090565b620004b7620004a8565b620004c48184846200047d565b505050565b5b81811015620004ec57620004e0600082620004ad565b600181019050620004ca565b5050565b601f8211156200053b576200050581620003af565b6200051084620003c4565b8101602085101562000520578190505b620005386200052f85620003c4565b830182620004c9565b50505b505050565b600082821c905092915050565b6000620005606000198460080262000540565b1980831691505092915050565b60006200057b83836200054d565b9150826002028217905092915050565b620005968262000311565b67ffffffffffffffff811115620005b257620005b16200031c565b5b620005be82546200037a565b620005cb828285620004f0565b600060209050601f831160018114620006035760008415620005ee578287015190505b620005fa85826200056d565b8655506200066a565b601f1984166200061386620003af565b60005b828110156200063d5784890151825560018201915060208501945060208101905062000616565b868310156200065d578489015162000659601f8916826200054d565b8355505b6001600288020188555050505b505050505050565b6200067d8162000285565b82525050565b60006020820190506200069a600083018462000672565b92915050565b613e8780620006b06000396000f3fe608060405234801561001057600080fd5b50600436106101f05760003560e01c80636a6278421161010f578063b88d4fde116100a2578063e757223011610071578063e75722301461059d578063e7c80f17146105cd578063e985e9c5146105e9578063f2fde38b14610619576101f0565b8063b88d4fde14610519578063b95b664014610535578063c87b56dd14610551578063da72c1e814610581576101f0565b806395d89b41116100de57806395d89b41146104a55780639785fac8146104c3578063a22cb465146104e1578063a295346e146104fd576101f0565b80636a6278421461043157806370a082311461044d578063715018a61461047d5780638da5cb5b14610487576101f0565b806322ae634f1161018757806343508b051161015657806343508b05146103995780634f6ccce7146103b557806355f804b3146103e55780636352211e14610401576101f0565b806322ae634f1461030157806323b872dd146103315780632f745c591461034d57806342842e0e1461037d576101f0565b80631481794e116101c35780631481794e1461028f578063150bde03146102ab578063157f1236146102c757806318160ddd146102e3576101f0565b806301ffc9a7146101f557806306fdde0314610225578063081812fc14610243578063095ea7b314610273575b600080fd5b61020f600480360381019061020a9190612c88565b610635565b60405161021c9190612cd0565b60405180910390f35b61022d6106af565b60405161023a9190612d7b565b60405180910390f35b61025d60048036038101906102589190612dd3565b610741565b60405161026a9190612e41565b60405180910390f35b61028d60048036038101906102889190612e88565b61075d565b005b6102a960048036038101906102a49190612e88565b610773565b005b6102c560048036038101906102c09190612dd3565b610864565b005b6102e160048036038101906102dc9190612ec8565b610cf2565b005b6102eb610d23565b6040516102f89190612f04565b60405180910390f35b61031b60048036038101906103169190612dd3565b610d2d565b6040516103289190612f04565b60405180910390f35b61034b60048036038101906103469190612f1f565b610d4a565b005b61036760048036038101906103629190612e88565b610e4c565b6040516103749190612f04565b60405180910390f35b61039760048036038101906103929190612f1f565b610ef5565b005b6103b360048036038101906103ae9190612e88565b610f15565b005b6103cf60048036038101906103ca9190612dd3565b610f58565b6040516103dc9190612f04565b60405180910390f35b6103ff60048036038101906103fa91906130a7565b610fce565b005b61041b60048036038101906104169190612dd3565b610fe9565b6040516104289190612e41565b60405180910390f35b61044b60048036038101906104469190612ec8565b610ffb565b005b61046760048036038101906104629190612ec8565b611024565b6040516104749190612f04565b60405180910390f35b6104856110de565b005b61048f6110f2565b60405161049c9190612e41565b60405180910390f35b6104ad61111c565b6040516104ba9190612d7b565b60405180910390f35b6104cb6111ae565b6040516104d89190612f04565b60405180910390f35b6104fb60048036038101906104f6919061311c565b611256565b005b61051760048036038101906105129190612dd3565b61126c565b005b610533600480360381019061052e91906131fd565b6112f8565b005b61054f600480360381019061054a9190613336565b61131d565b005b61056b60048036038101906105669190612dd3565b6113db565b6040516105789190612d7b565b60405180910390f35b61059b60048036038101906105969190612f1f565b611534565b005b6105b760048036038101906105b29190612dd3565b61154c565b6040516105c49190612f04565b60405180910390f35b6105e760048036038101906105e29190612dd3565b611569565b005b61060360048036038101906105fe91906133cb565b611653565b6040516106109190612cd0565b60405180910390f35b610633600480360381019061062e9190612ec8565b6116e7565b005b60007f780e9d63000000000000000000000000000000000000000000000000000000007bffffffffffffffffffffffffffffffffffffffffffffffffffffffff1916827bffffffffffffffffffffffffffffffffffffffffffffffffffffffff191614806106a857506106a78261176d565b5b9050919050565b6060600080546106be9061343a565b80601f01602080910402602001604051908101604052809291908181526020018280546106ea9061343a565b80156107375780601f1061070c57610100808354040283529160200191610737565b820191906000526020600020905b81548152906001019060200180831161071a57829003601f168201915b5050505050905090565b600061074c8261184f565b50610756826118d7565b9050919050565b61076f828261076a611914565b61191c565b5050565b61077b61192e565b6000600c60009054906101000a900473ffffffffffffffffffffffffffffffffffffffff1690508073ffffffffffffffffffffffffffffffffffffffff1663a9059cbb84846040518363ffffffff1660e01b81526004016107dd92919061346b565b6020604051808303816000875af11580156107fc573d6000803e3d6000fd5b505050506040513d601f19601f8201168201806040525081019061082091906134a9565b61085f576040517f08c379a000000000000000000000000000000000000000000000000000000000815260040161085690613522565b60405180910390fd5b505050565b6000600e6000838152602001908152602001600020549050600081116108bf576040517f08c379a00000000000000000000000000000000000000000000000000000000081526004016108b69061358e565b60405180910390fd5b60006108ca83610fe9565b905060003390506000600f60008681526020019081526020016000205490506000600c60009054906101000a900473ffffffffffffffffffffffffffffffffffffffff1690508073ffffffffffffffffffffffffffffffffffffffff166323b872dd8430886040518463ffffffff1660e01b815260040161094d939291906135ae565b6020604051808303816000875af115801561096c573d6000803e3d6000fd5b505050506040513d601f19601f8201168201806040525081019061099091906134a9565b6109cf576040517f08c379a00000000000000000000000000000000000000000000000000000000081526004016109c690613522565b60405180910390fd5b60008203610aa0578073ffffffffffffffffffffffffffffffffffffffff1663a9059cbb6109fb6110f2565b876040518363ffffffff1660e01b8152600401610a1992919061346b565b6020604051808303816000875af1158015610a38573d6000803e3d6000fd5b505050506040513d601f19601f82011682018060405250810190610a5c91906134a9565b610a9b576040517f08c379a0000000000000000000000000000000000000000000000000000000008152600401610a9290613631565b60405180910390fd5b610c50565b6000606483610aaf91906136af565b83610aba91906136e0565b90508173ffffffffffffffffffffffffffffffffffffffff1663a9059cbb86836040518363ffffffff1660e01b8152600401610af792919061346b565b6020604051808303816000875af1158015610b16573d6000803e3d6000fd5b505050506040513d601f19601f82011682018060405250810190610b3a91906134a9565b610b79576040517f08c379a0000000000000000000000000000000000000000000000000000000008152600401610b7090613760565b60405180910390fd5b60008187610b879190613780565b90508273ffffffffffffffffffffffffffffffffffffffff1663a9059cbb610bad6110f2565b836040518363ffffffff1660e01b8152600401610bcb92919061346b565b6020604051808303816000875af1158015610bea573d6000803e3d6000fd5b505050506040513d601f19601f82011682018060405250810190610c0e91906134a9565b610c4d576040517f08c379a0000000000000000000000000000000000000000000000000000000008152600401610c4490613631565b60405180910390fd5b50505b610c5b8484886119b5565b84600f600088815260200190815260200160002081905550600063773594009050808611610cb8576064606e87610c9291906137b4565b610c9c91906136af565b600e600089815260200190815260200160002081905550610ce9565b6064607087610cc791906137b4565b610cd191906136af565b600e6000898152602001908152602001600020819055505b50505050505050565b610cfa61192e565b6000600b6000815480929190610d0f906137f6565b919050559050610d1f8282611b22565b5050565b6000600b54905090565b6000600f6000838152602001908152602001600020549050919050565b600073ffffffffffffffffffffffffffffffffffffffff168273ffffffffffffffffffffffffffffffffffffffff1603610dbc5760006040517f64a0ae92000000000000000000000000000000000000000000000000000000008152600401610db39190612e41565b60405180910390fd5b6000610dd08383610dcb611914565b611b40565b90508373ffffffffffffffffffffffffffffffffffffffff168173ffffffffffffffffffffffffffffffffffffffff1614610e46578382826040517f64283d7b000000000000000000000000000000000000000000000000000000008152600401610e3d9392919061383e565b60405180910390fd5b50505050565b6000610e5783611024565b8210610e9c5782826040517fa57d13dc000000000000000000000000000000000000000000000000000000008152600401610e9392919061346b565b60405180910390fd5b600660008473ffffffffffffffffffffffffffffffffffffffff1673ffffffffffffffffffffffffffffffffffffffff168152602001908152602001600020600083815260200190815260200160002054905092915050565b610f10838383604051806020016040528060008152506112f8565b505050565b60005b81811015610f53576000600b6000815480929190610f35906137f6565b919050559050610f458482611b22565b508080600101915050610f18565b505050565b6000610f62610d23565b8210610fa8576000826040517fa57d13dc000000000000000000000000000000000000000000000000000000008152600401610f9f92919061346b565b60405180910390fd5b60088281548110610fbc57610fbb613875565b5b90600052602060002001549050919050565b610fd661192e565b80600d9081610fe59190613a50565b5050565b6000610ff48261184f565b9050919050565b6000600b6000815480929190611010906137f6565b9190505590506110208282611b22565b5050565b60008073ffffffffffffffffffffffffffffffffffffffff168273ffffffffffffffffffffffffffffffffffffffff16036110975760006040517f89c62b6400000000000000000000000000000000000000000000000000000000815260040161108e9190612e41565b60405180910390fd5b600360008373ffffffffffffffffffffffffffffffffffffffff1673ffffffffffffffffffffffffffffffffffffffff168152602001908152602001600020549050919050565b6110e661192e565b6110f06000611c5d565b565b6000600a60009054906101000a900473ffffffffffffffffffffffffffffffffffffffff16905090565b60606001805461112b9061343a565b80601f01602080910402602001604051908101604052809291908181526020018280546111579061343a565b80156111a45780601f10611179576101008083540402835291602001916111a4565b820191906000526020600020905b81548152906001019060200180831161118757829003601f168201915b5050505050905090565b600080600c60009054906101000a900473ffffffffffffffffffffffffffffffffffffffff1690508073ffffffffffffffffffffffffffffffffffffffff166370a08231306040518263ffffffff1660e01b815260040161120f9190612e41565b602060405180830381865afa15801561122c573d6000803e3d6000fd5b505050506040513d601f19601f820116820180604052508101906112509190613b37565b91505090565b611268611261611914565b8383611d23565b5050565b61127461192e565b60006302faf080905060005b828110156112f3576000600b600081548092919061129d906137f6565b9190505590506112b46112ae6110f2565b82611b22565b82600e6000838152602001908152602001600020819055506000600f600083815260200190815260200160002081905550508080600101915050611280565b505050565b611303848484610d4a565b61131761130e611914565b85858585611e92565b50505050565b61132561192e565b81819050858590501461136d576040517f08c379a000000000000000000000000000000000000000000000000000000000815260040161136490613bd6565b60405180910390fd5b60005b828290508110156113d3576113c686868381811061139157611390613875565b5b90506020020160208101906113a69190612ec8565b858585858181106113ba576113b9613875565b5b905060200201356119b5565b8080600101915050611370565b505050505050565b6060600073ffffffffffffffffffffffffffffffffffffffff166113fe83612043565b73ffffffffffffffffffffffffffffffffffffffff1603611454576040517f08c379a000000000000000000000000000000000000000000000000000000000815260040161144b90613c68565b60405180910390fd5b6000600d80546114639061343a565b80601f016020809104026020016040519081016040528092919081815260200182805461148f9061343a565b80156114dc5780601f106114b1576101008083540402835291602001916114dc565b820191906000526020600020905b8154815290600101906020018083116114bf57829003601f168201915b505050505090506000815111611501576040518060200160405280600081525061152c565b8061150b84612080565b60405160200161151c929190613d10565b6040516020818303038152906040525b915050919050565b61153c61192e565b6115478383836119b5565b505050565b6000600e6000838152602001908152602001600020549050919050565b6000600c60009054906101000a900473ffffffffffffffffffffffffffffffffffffffff1690508073ffffffffffffffffffffffffffffffffffffffff166323b872dd3330856040518463ffffffff1660e01b81526004016115cd939291906135ae565b6020604051808303816000875af11580156115ec573d6000803e3d6000fd5b505050506040513d601f19601f8201168201806040525081019061161091906134a9565b61164f576040517f08c379a000000000000000000000000000000000000000000000000000000000815260040161164690613522565b60405180910390fd5b5050565b6000600560008473ffffffffffffffffffffffffffffffffffffffff1673ffffffffffffffffffffffffffffffffffffffff16815260200190815260200160002060008373ffffffffffffffffffffffffffffffffffffffff1673ffffffffffffffffffffffffffffffffffffffff16815260200190815260200160002060009054906101000a900460ff16905092915050565b6116ef61192e565b600073ffffffffffffffffffffffffffffffffffffffff168173ffffffffffffffffffffffffffffffffffffffff16036117615760006040517f1e4fbdf70000000000000000000000000000000000000000000000000000000081526004016117589190612e41565b60405180910390fd5b61176a81611c5d565b50565b60007f80ac58cd000000000000000000000000000000000000000000000000000000007bffffffffffffffffffffffffffffffffffffffffffffffffffffffff1916827bffffffffffffffffffffffffffffffffffffffffffffffffffffffff1916148061183857507f5b5e139f000000000000000000000000000000000000000000000000000000007bffffffffffffffffffffffffffffffffffffffffffffffffffffffff1916827bffffffffffffffffffffffffffffffffffffffffffffffffffffffff1916145b8061184857506118478261214e565b5b9050919050565b60008061185b83612043565b9050600073ffffffffffffffffffffffffffffffffffffffff168173ffffffffffffffffffffffffffffffffffffffff16036118ce57826040517f7e2732890000000000000000000000000000000000000000000000000000000081526004016118c59190612f04565b60405180910390fd5b80915050919050565b60006004600083815260200190815260200160002060009054906101000a900473ffffffffffffffffffffffffffffffffffffffff169050919050565b600033905090565b61192983838360016121b8565b505050565b611936611914565b73ffffffffffffffffffffffffffffffffffffffff166119546110f2565b73ffffffffffffffffffffffffffffffffffffffff16146119b357611977611914565b6040517f118cdaa70000000000000000000000000000000000000000000000000000000081526004016119aa9190612e41565b60405180910390fd5b565b600073ffffffffffffffffffffffffffffffffffffffff168273ffffffffffffffffffffffffffffffffffffffff1603611a275760006040517f64a0ae92000000000000000000000000000000000000000000000000000000008152600401611a1e9190612e41565b60405180910390fd5b6000611a3583836000611b40565b9050600073ffffffffffffffffffffffffffffffffffffffff168173ffffffffffffffffffffffffffffffffffffffff1603611aa857816040517f7e273289000000000000000000000000000000000000000000000000000000008152600401611a9f9190612f04565b60405180910390fd5b8373ffffffffffffffffffffffffffffffffffffffff168173ffffffffffffffffffffffffffffffffffffffff1614611b1c578382826040517f64283d7b000000000000000000000000000000000000000000000000000000008152600401611b139392919061383e565b60405180910390fd5b50505050565b611b3c82826040518060200160405280600081525061237d565b5050565b600080611b4e8585856123a1565b9050600073ffffffffffffffffffffffffffffffffffffffff168173ffffffffffffffffffffffffffffffffffffffff1603611b9257611b8d846125bb565b611bd1565b8473ffffffffffffffffffffffffffffffffffffffff168173ffffffffffffffffffffffffffffffffffffffff1614611bd057611bcf8185612604565b5b5b600073ffffffffffffffffffffffffffffffffffffffff168573ffffffffffffffffffffffffffffffffffffffff1603611c1357611c0e846126ef565b611c52565b8473ffffffffffffffffffffffffffffffffffffffff168173ffffffffffffffffffffffffffffffffffffffff1614611c5157611c5085856127c0565b5b5b809150509392505050565b6000600a60009054906101000a900473ffffffffffffffffffffffffffffffffffffffff16905081600a60006101000a81548173ffffffffffffffffffffffffffffffffffffffff021916908373ffffffffffffffffffffffffffffffffffffffff1602179055508173ffffffffffffffffffffffffffffffffffffffff168173ffffffffffffffffffffffffffffffffffffffff167f8be0079c531659141344cd1fd0a4f28419497f9722a3daafe3b4186f6b6457e060405160405180910390a35050565b600073ffffffffffffffffffffffffffffffffffffffff168273ffffffffffffffffffffffffffffffffffffffff1603611d9457816040517f5b08ba18000000000000000000000000000000000000000000000000000000008152600401611d8b9190612e41565b60405180910390fd5b80600560008573ffffffffffffffffffffffffffffffffffffffff1673ffffffffffffffffffffffffffffffffffffffff16815260200190815260200160002060008473ffffffffffffffffffffffffffffffffffffffff1673ffffffffffffffffffffffffffffffffffffffff16815260200190815260200160002060006101000a81548160ff0219169083151502179055508173ffffffffffffffffffffffffffffffffffffffff168373ffffffffffffffffffffffffffffffffffffffff167f17307eab39ab6107e8899845ad3d59bd9653f200f220920489ca2b5937696c3183604051611e859190612cd0565b60405180910390a3505050565b60008373ffffffffffffffffffffffffffffffffffffffff163b111561203c578273ffffffffffffffffffffffffffffffffffffffff1663150b7a02868685856040518563ffffffff1660e01b8152600401611ef19493929190613d94565b6020604051808303816000875af1925050508015611f2d57506040513d601f19601f82011682018060405250810190611f2a9190613df5565b60015b611fb1573d8060008114611f5d576040519150601f19603f3d011682016040523d82523d6000602084013e611f62565b606091505b506000815103611fa957836040517f64a0ae92000000000000000000000000000000000000000000000000000000008152600401611fa09190612e41565b60405180910390fd5b805160208201fd5b63150b7a0260e01b7bffffffffffffffffffffffffffffffffffffffffffffffffffffffff1916817bffffffffffffffffffffffffffffffffffffffffffffffffffffffff19161461203a57836040517f64a0ae920000000000000000000000000000000000000000000000000000000081526004016120319190612e41565b60405180910390fd5b505b5050505050565b60006002600083815260200190815260200160002060009054906101000a900473ffffffffffffffffffffffffffffffffffffffff169050919050565b60606000600161208f8461284b565b01905060008167ffffffffffffffff8111156120ae576120ad612f7c565b5b6040519080825280601f01601f1916602001820160405280156120e05781602001600182028036833780820191505090505b509050600082602083010190505b600115612143578080600190039150507f3031323334353637383961626364656600000000000000000000000000000000600a86061a8153600a858161213757612136613651565b5b049450600085036120ee575b819350505050919050565b60007f01ffc9a7000000000000000000000000000000000000000000000000000000007bffffffffffffffffffffffffffffffffffffffffffffffffffffffff1916827bffffffffffffffffffffffffffffffffffffffffffffffffffffffff1916149050919050565b80806121f15750600073ffffffffffffffffffffffffffffffffffffffff168273ffffffffffffffffffffffffffffffffffffffff1614155b156123255760006122018461184f565b9050600073ffffffffffffffffffffffffffffffffffffffff168373ffffffffffffffffffffffffffffffffffffffff161415801561226c57508273ffffffffffffffffffffffffffffffffffffffff168173ffffffffffffffffffffffffffffffffffffffff1614155b801561227f575061227d8184611653565b155b156122c157826040517fa9fbf51f0000000000000000000000000000000000000000000000000000000081526004016122b89190612e41565b60405180910390fd5b811561232357838573ffffffffffffffffffffffffffffffffffffffff168273ffffffffffffffffffffffffffffffffffffffff167f8c5be1e5ebec7d5bd14f71427d1e84f3dd0314c0f7b2291e5b200ac8c7c3b92560405160405180910390a45b505b836004600085815260200190815260200160002060006101000a81548173ffffffffffffffffffffffffffffffffffffffff021916908373ffffffffffffffffffffffffffffffffffffffff16021790555050505050565b612387838361299e565b61239c612392611914565b6000858585611e92565b505050565b6000806123ad84612043565b9050600073ffffffffffffffffffffffffffffffffffffffff168373ffffffffffffffffffffffffffffffffffffffff16146123ef576123ee818486612a97565b5b600073ffffffffffffffffffffffffffffffffffffffff168173ffffffffffffffffffffffffffffffffffffffff1614612480576124316000856000806121b8565b6001600360008373ffffffffffffffffffffffffffffffffffffffff1673ffffffffffffffffffffffffffffffffffffffff168152602001908152602001600020600082825403925050819055505b600073ffffffffffffffffffffffffffffffffffffffff168573ffffffffffffffffffffffffffffffffffffffff1614612503576001600360008773ffffffffffffffffffffffffffffffffffffffff1673ffffffffffffffffffffffffffffffffffffffff168152602001908152602001600020600082825401925050819055505b846002600086815260200190815260200160002060006101000a81548173ffffffffffffffffffffffffffffffffffffffff021916908373ffffffffffffffffffffffffffffffffffffffff160217905550838573ffffffffffffffffffffffffffffffffffffffff168273ffffffffffffffffffffffffffffffffffffffff167fddf252ad1be2c89b69c2b068fc378daa952ba7f163c4a11628f55a4df523b3ef60405160405180910390a4809150509392505050565b6008805490506009600083815260200190815260200160002081905550600881908060018154018082558091505060019003906000526020600020016000909190919091505550565b600061260f83611024565b90506000600760008481526020019081526020016000205490506000600660008673ffffffffffffffffffffffffffffffffffffffff1673ffffffffffffffffffffffffffffffffffffffff16815260200190815260200160002090508282146126bb5760008160008581526020019081526020016000205490508082600085815260200190815260200160002081905550826007600083815260200190815260200160002081905550505b6007600085815260200190815260200160002060009055806000848152602001908152602001600020600090555050505050565b600060016008805490506127039190613780565b905060006009600084815260200190815260200160002054905060006008838154811061273357612732613875565b5b90600052602060002001549050806008838154811061275557612754613875565b5b9060005260206000200181905550816009600083815260200190815260200160002081905550600960008581526020019081526020016000206000905560088054806127a4576127a3613e22565b5b6001900381819060005260206000200160009055905550505050565b600060016127cd84611024565b6127d79190613780565b905081600660008573ffffffffffffffffffffffffffffffffffffffff1673ffffffffffffffffffffffffffffffffffffffff168152602001908152602001600020600083815260200190815260200160002081905550806007600084815260200190815260200160002081905550505050565b600080600090507a184f03e93ff9f4daa797ed6e38ed64bf6a1f01000000000000000083106128a9577a184f03e93ff9f4daa797ed6e38ed64bf6a1f010000000000000000838161289f5761289e613651565b5b0492506040810190505b6d04ee2d6d415b85acef810000000083106128e6576d04ee2d6d415b85acef810000000083816128dc576128db613651565b5b0492506020810190505b662386f26fc10000831061291557662386f26fc10000838161290b5761290a613651565b5b0492506010810190505b6305f5e100831061293e576305f5e100838161293457612933613651565b5b0492506008810190505b612710831061296357612710838161295957612958613651565b5b0492506004810190505b60648310612986576064838161297c5761297b613651565b5b0492506002810190505b600a8310612995576001810190505b80915050919050565b600073ffffffffffffffffffffffffffffffffffffffff168273ffffffffffffffffffffffffffffffffffffffff1603612a105760006040517f64a0ae92000000000000000000000000000000000000000000000000000000008152600401612a079190612e41565b60405180910390fd5b6000612a1e83836000611b40565b9050600073ffffffffffffffffffffffffffffffffffffffff168173ffffffffffffffffffffffffffffffffffffffff1614612a925760006040517f73c6ac6e000000000000000000000000000000000000000000000000000000008152600401612a899190612e41565b60405180910390fd5b505050565b612aa2838383612b5b565b612b5657600073ffffffffffffffffffffffffffffffffffffffff168373ffffffffffffffffffffffffffffffffffffffff1603612b1757806040517f7e273289000000000000000000000000000000000000000000000000000000008152600401612b0e9190612f04565b60405180910390fd5b81816040517f177e802f000000000000000000000000000000000000000000000000000000008152600401612b4d92919061346b565b60405180910390fd5b505050565b60008073ffffffffffffffffffffffffffffffffffffffff168373ffffffffffffffffffffffffffffffffffffffff1614158015612c1357508273ffffffffffffffffffffffffffffffffffffffff168473ffffffffffffffffffffffffffffffffffffffff161480612bd45750612bd38484611653565b5b80612c1257508273ffffffffffffffffffffffffffffffffffffffff16612bfa836118d7565b73ffffffffffffffffffffffffffffffffffffffff16145b5b90509392505050565b6000604051905090565b600080fd5b600080fd5b60007fffffffff0000000000000000000000000000000000000000000000000000000082169050919050565b612c6581612c30565b8114612c7057600080fd5b50565b600081359050612c8281612c5c565b92915050565b600060208284031215612c9e57612c9d612c26565b5b6000612cac84828501612c73565b91505092915050565b60008115159050919050565b612cca81612cb5565b82525050565b6000602082019050612ce56000830184612cc1565b92915050565b600081519050919050565b600082825260208201905092915050565b60005b83811015612d25578082015181840152602081019050612d0a565b60008484015250505050565b6000601f19601f8301169050919050565b6000612d4d82612ceb565b612d578185612cf6565b9350612d67818560208601612d07565b612d7081612d31565b840191505092915050565b60006020820190508181036000830152612d958184612d42565b905092915050565b6000819050919050565b612db081612d9d565b8114612dbb57600080fd5b50565b600081359050612dcd81612da7565b92915050565b600060208284031215612de957612de8612c26565b5b6000612df784828501612dbe565b91505092915050565b600073ffffffffffffffffffffffffffffffffffffffff82169050919050565b6000612e2b82612e00565b9050919050565b612e3b81612e20565b82525050565b6000602082019050612e566000830184612e32565b92915050565b612e6581612e20565b8114612e7057600080fd5b50565b600081359050612e8281612e5c565b92915050565b60008060408385031215612e9f57612e9e612c26565b5b6000612ead85828601612e73565b9250506020612ebe85828601612dbe565b9150509250929050565b600060208284031215612ede57612edd612c26565b5b6000612eec84828501612e73565b91505092915050565b612efe81612d9d565b82525050565b6000602082019050612f196000830184612ef5565b92915050565b600080600060608486031215612f3857612f37612c26565b5b6000612f4686828701612e73565b9350506020612f5786828701612e73565b9250506040612f6886828701612dbe565b9150509250925092565b600080fd5b600080fd5b7f4e487b7100000000000000000000000000000000000000000000000000000000600052604160045260246000fd5b612fb482612d31565b810181811067ffffffffffffffff82111715612fd357612fd2612f7c565b5b80604052505050565b6000612fe6612c1c565b9050612ff28282612fab565b919050565b600067ffffffffffffffff82111561301257613011612f7c565b5b61301b82612d31565b9050602081019050919050565b82818337600083830152505050565b600061304a61304584612ff7565b612fdc565b90508281526020810184848401111561306657613065612f77565b5b613071848285613028565b509392505050565b600082601f83011261308e5761308d612f72565b5b813561309e848260208601613037565b91505092915050565b6000602082840312156130bd576130bc612c26565b5b600082013567ffffffffffffffff8111156130db576130da612c2b565b5b6130e784828501613079565b91505092915050565b6130f981612cb5565b811461310457600080fd5b50565b600081359050613116816130f0565b92915050565b6000806040838503121561313357613132612c26565b5b600061314185828601612e73565b925050602061315285828601613107565b9150509250929050565b600067ffffffffffffffff82111561317757613176612f7c565b5b61318082612d31565b9050602081019050919050565b60006131a061319b8461315c565b612fdc565b9050828152602081018484840111156131bc576131bb612f77565b5b6131c7848285613028565b509392505050565b600082601f8301126131e4576131e3612f72565b5b81356131f484826020860161318d565b91505092915050565b6000806000806080858703121561321757613216612c26565b5b600061322587828801612e73565b945050602061323687828801612e73565b935050604061324787828801612dbe565b925050606085013567ffffffffffffffff81111561326857613267612c2b565b5b613274878288016131cf565b91505092959194509250565b600080fd5b600080fd5b60008083601f8401126132a05761329f612f72565b5b8235905067ffffffffffffffff8111156132bd576132bc613280565b5b6020830191508360208202830111156132d9576132d8613285565b5b9250929050565b60008083601f8401126132f6576132f5612f72565b5b8235905067ffffffffffffffff81111561331357613312613280565b5b60208301915083602082028301111561332f5761332e613285565b5b9250929050565b60008060008060006060868803121561335257613351612c26565b5b600086013567ffffffffffffffff8111156133705761336f612c2b565b5b61337c8882890161328a565b9550955050602061338f88828901612e73565b935050604086013567ffffffffffffffff8111156133b0576133af612c2b565b5b6133bc888289016132e0565b92509250509295509295909350565b600080604083850312156133e2576133e1612c26565b5b60006133f085828601612e73565b925050602061340185828601612e73565b9150509250929050565b7f4e487b7100000000000000000000000000000000000000000000000000000000600052602260045260246000fd5b6000600282049050600182168061345257607f821691505b6020821081036134655761346461340b565b5b50919050565b60006040820190506134806000830185612e32565b61348d6020830184612ef5565b9392505050565b6000815190506134a3816130f0565b92915050565b6000602082840312156134bf576134be612c26565b5b60006134cd84828501613494565b91505092915050565b7f55534454207472616e73666572206661696c6564000000000000000000000000600082015250565b600061350c601483612cf6565b9150613517826134d6565b602082019050919050565b6000602082019050818103600083015261353b816134ff565b9050919050565b7f4e4654206e6f7420666f722073616c6500000000000000000000000000000000600082015250565b6000613578601083612cf6565b915061358382613542565b602082019050919050565b600060208201905081810360008301526135a78161356b565b9050919050565b60006060820190506135c36000830186612e32565b6135d06020830185612e32565b6135dd6040830184612ef5565b949350505050565b7f41646d696e207061796d656e74206661696c6564000000000000000000000000600082015250565b600061361b601483612cf6565b9150613626826135e5565b602082019050919050565b6000602082019050818103600083015261364a8161360e565b9050919050565b7f4e487b7100000000000000000000000000000000000000000000000000000000600052601260045260246000fd5b7f4e487b7100000000000000000000000000000000000000000000000000000000600052601160045260246000fd5b60006136ba82612d9d565b91506136c583612d9d565b9250826136d5576136d4613651565b5b828204905092915050565b60006136eb82612d9d565b91506136f683612d9d565b925082820190508082111561370e5761370d613680565b5b92915050565b7f53656c6c6572207061796d656e74206661696c65640000000000000000000000600082015250565b600061374a601583612cf6565b915061375582613714565b602082019050919050565b600060208201905081810360008301526137798161373d565b9050919050565b600061378b82612d9d565b915061379683612d9d565b92508282039050818111156137ae576137ad613680565b5b92915050565b60006137bf82612d9d565b91506137ca83612d9d565b92508282026137d881612d9d565b915082820484148315176137ef576137ee613680565b5b5092915050565b600061380182612d9d565b91507fffffffffffffffffffffffffffffffffffffffffffffffffffffffffffffffff820361383357613832613680565b5b600182019050919050565b60006060820190506138536000830186612e32565b6138606020830185612ef5565b61386d6040830184612e32565b949350505050565b7f4e487b7100000000000000000000000000000000000000000000000000000000600052603260045260246000fd5b60008190508160005260206000209050919050565b60006020601f8301049050919050565b600082821b905092915050565b6000600883026139067fffffffffffffffffffffffffffffffffffffffffffffffffffffffffffffffff826138c9565b61391086836138c9565b95508019841693508086168417925050509392505050565b6000819050919050565b600061394d61394861394384612d9d565b613928565b612d9d565b9050919050565b6000819050919050565b61396783613932565b61397b61397382613954565b8484546138d6565b825550505050565b600090565b613990613983565b61399b81848461395e565b505050565b5b818110156139bf576139b4600082613988565b6001810190506139a1565b5050565b601f821115613a04576139d5816138a4565b6139de846138b9565b810160208510156139ed578190505b613a016139f9856138b9565b8301826139a0565b50505b505050565b600082821c905092915050565b6000613a2760001984600802613a09565b1980831691505092915050565b6000613a408383613a16565b9150826002028217905092915050565b613a5982612ceb565b67ffffffffffffffff811115613a7257613a71612f7c565b5b613a7c825461343a565b613a878282856139c3565b600060209050601f831160018114613aba5760008415613aa8578287015190505b613ab28582613a34565b865550613b1a565b601f198416613ac8866138a4565b60005b82811015613af057848901518255600182019150602085019450602081019050613acb565b86831015613b0d5784890151613b09601f891682613a16565b8355505b6001600288020188555050505b505050505050565b600081519050613b3181612da7565b92915050565b600060208284031215613b4d57613b4c612c26565b5b6000613b5b84828501613b22565b91505092915050565b7f4261746368207472616e7366657220696e70757420617272617973206d75737460008201527f2068617665207468652073616d65206c656e6774680000000000000000000000602082015250565b6000613bc0603583612cf6565b9150613bcb82613b64565b604082019050919050565b60006020820190508181036000830152613bef81613bb3565b9050919050565b7f4552433732314d657461646174613a2055524920717565727920666f72206e6f60008201527f6e6578697374656e7420746f6b656e0000000000000000000000000000000000602082015250565b6000613c52602f83612cf6565b9150613c5d82613bf6565b604082019050919050565b60006020820190508181036000830152613c8181613c45565b9050919050565b600081905092915050565b6000613c9e82612ceb565b613ca88185613c88565b9350613cb8818560208601612d07565b80840191505092915050565b7f2e706e6700000000000000000000000000000000000000000000000000000000600082015250565b6000613cfa600483613c88565b9150613d0582613cc4565b600482019050919050565b6000613d1c8285613c93565b9150613d288284613c93565b9150613d3382613ced565b91508190509392505050565b600081519050919050565b600082825260208201905092915050565b6000613d6682613d3f565b613d708185613d4a565b9350613d80818560208601612d07565b613d8981612d31565b840191505092915050565b6000608082019050613da96000830187612e32565b613db66020830186612e32565b613dc36040830185612ef5565b8181036060830152613dd58184613d5b565b905095945050505050565b600081519050613def81612c5c565b92915050565b600060208284031215613e0b57613e0a612c26565b5b6000613e1984828501613de0565b91505092915050565b7f4e487b7100000000000000000000000000000000000000000000000000000000600052603160045260246000fdfea2646970667358221220c273d26331e4108062fea24d5c6207aae36dbf9891c41f7dbccfd4d39fa7972464736f6c63430008180033",
  "linkReferences": {},
  "deployedLinkReferences": {}
}